:100000000C9453000C947B000C947B000C947B00AC
:100010000C947B000C947B000C947B000C947B0074
:100020000C947B000C947B000C947B000C947B0064
:100030000C947B000C947B000C947B000C947B0054
:100040000C94BC010C947B000C942C020C940602C2
:100050000C947B000C947B000C947B000C947B0034
:100060000C947B000C947B0000000000250028000D
:100070002B0000000000240027002A0004040404D0
:100080000404040402020202020203030303030342
:10009000010204081020408001020408102001021F
:1000A00004081020920311241FBECFEFD8E0DEBF5A
:1000B000CDBF11E0A0E0B1E0E2EDF7E002C00590B5
:1000C0000D92AE31B107D9F721E0AEE1B1E001C048
:1000D0001D92A43CB207E1F710E0C3E5D0E004C0F4
:1000E0002197FE010E94E103C235D107C9F70E94A2
:1000F0005E020C94E7030C9400003FB7F8948091E3
:10010000230190912401A0912501B091260126B5EB
:10011000A89B05C02F3F19F00196A11DB11D3FBF3F
:10012000BA2FA92F982F8827BC01CD01620F711D0E
:10013000811D911D42E0660F771F881F991F4A9508
:10014000D1F70895AF92BF92CF92DF92EF92FF92D4
:100150000F931F93CF93DF936C017B018B01040FEF
:10016000151FEB015E01AE18BF08C017D10759F08B
:100170006991D601ED91FC910190F081E02DC601CD
:100180000995892B79F7C501DF91CF911F910F91C7
:10019000FF90EF90DF90CF90BF90AF900895FC015B
:1001A000538D448D252F30E0842F90E0821B930BDC
:1001B000541710F0CF96089501970895FC01918D82
:1001C000828D981761F0A28DAE0FBF2FB11D5D9685
:1001D0008C91928D9F5F9F73928F90E008958FEF27
:1001E0009FEF0895FC01918D828D981731F0828DDB
:1001F000E80FF11D858D90E008958FEF9FEF089532
:10020000FC01918D228D892F90E0805C9F4F821B95
:1002100091098F739927089587E291E00E94000168
:1002200021E0892B09F420E0822F089580E090E0FE
:10023000892B29F00E940C0181110C940000089573
:10024000FC01A48DA80FB92FB11DA35ABF4F2C914B
:10025000848D90E001968F739927848FA689B78942
:100260002C93A089B1898C91837080648C93938D39
:10027000848D981306C00288F389E02D80818F7DDC
:1002800080830895EF92FF920F931F93CF93DF9394
:10029000EC0181E0888F9B8D8C8D98131AC0E889C2
:1002A000F989808185FF15C09FB7F894EE89FF8991
:1002B0006083E889F98980818370806480839FBF2F
:1002C00081E090E0DF91CF911F910F91FF90EF902F
:1002D0000895F62E0B8D10E00F5F1F4F0F7311273F
:1002E000E02E8C8D8E110CC00FB607FCFACFE8897A
:1002F000F989808185FFF5CFCE010E942001F1CFE1
:10030000EB8DEC0FFD2FF11DE35AFF4FF0829FB7ED
:10031000F8940B8FEA89FB8980818062CFCFCF93DD
:10032000DF93EC01888D8823B9F0AA89BB89E8891D
:10033000F9898C9185FD03C0808186FD0DC00FB6C3
:1003400007FCF7CF8C9185FFF2CF808185FFEDCF41
:10035000CE010E942001E9CFDF91CF910895FC01E9
:1003600001900020E9F73197AF01481B590BBC0100
:1003700087E291E00C94A2001F920F920FB60F92A9
:1003800011242F933F938F939F93AF93BF938091AB
:100390001F0190912001A0912101B0912201309183
:1003A0001E0123E0230F2D3758F50196A11DB11D25
:1003B00020931E0180931F0190932001A09321019F
:1003C000B09322018091230190912401A0912501F5
:1003D000B09126010196A11DB11D80932301909338
:1003E0002401A0932501B0932601BF91AF919F9165
:1003F0008F913F912F910F900FBE0F901F901895E6
:1004000026E8230F0296A11DB11DD2CF1F920F9295
:100410000FB60F9211242F933F934F935F936F93D7
:100420007F938F939F93AF93BF93EF93FF9387E255
:1004300091E00E942001FF91EF91BF91AF919F91B8
:100440008F917F916F915F914F913F912F910F907D
:100450000FBE0F901F9018951F920F920FB60F921C
:1004600011242F938F939F93EF93FF93E091370184
:10047000F09138018081E0913D01F0913E0182FDD3
:100480001BC09081809140018F5F8F73209141014B
:10049000821741F0E0914001F0E0E95DFE4F958F59
:1004A00080934001FF91EF919F918F912F910F9039
:1004B0000FBE0F901F9018958081F4CFCF93DF93DC
:1004C000CDB7DEB7A1970FB6F894DEBF0FBECDBF94
:1004D000789484B5826084BD84B5816084BD85B51F
:1004E000826085BD85B5816085BD80916E0081602B
:1004F00080936E00109281008091810082608093D1
:1005000081008091810081608093810080918000D2
:100510008160809380008091B10084608093B100FD
:100520008091B00081608093B00080917A008460F7
:1005300080937A0080917A00826080937A00809123
:100540007A00816080937A0080917A00806880933D
:100550007A001092C100E0913701F091380182E0F9
:100560008083E0913301F09134011082E0913501F4
:10057000F091360180E1808310923F01E0913B01D0
:10058000F0913C0186E08083E0913901F0913A01DD
:10059000808180618083E0913901F0913A0180810E
:1005A00088608083E0913901F0913A018081806810
:1005B0008083E0913901F0913A0180818F7D8083C1
:1005C000E0EAF0E02491ECE8F0E084918823C9F0BF
:1005D00090E0880F991FFC01EE58FF4F4591549110
:1005E000FC01E859FF4FA591B4919FB7F894FA0127
:1005F00080812095822380838C91E22FE823EC93E5
:100600009FBF92E4392E2AE0822E912CA12CB12C8E
:1006100000E010E082E191E00E94AF0130927C00A6
:1006200080917A00806480937A0080917A0086FDC0
:10063000FCCFC0907800D09079000D2C000CEE0813
:10064000FF08F7FE59C06DE287E291E00E94420187
:1006500022273327A9012C193D094E095F0919A248
:10066000CE0181967C01CA01B901A50194010E94C5
:10067000BF03605DF70162937F01211531054105DC
:10068000510589F7E114F10419F0C7010E94AF0187
:100690008BE191E00E94AF010E947D002B013C01A3
:1006A00084E6C82ED12CE12CF12C0E947D00641927
:1006B000750986099709683E734081059105A8F37D
:1006C000F1E0CF1AD108E108F10828EE420E23E04C
:1006D000521E611C711CC114D104E104F10429F7FC
:1006E0000115110509F496CF0E940C01882309F425
:1006F00091CF0E9400008ECFA701960119A2CE01D2
:1007000081967C01CA01B901A50194010E94BF0331
:10071000605DF70162937F012115310541055105A7
:1007200089F7B0CFE7E2F1E01382128288EE93E01E
:10073000A0E0B0E084839583A683B78384E091E052
:100740009183808385EC90E09587848784EC90E0AA
:100750009787868780EC90E0918B808B81EC90E08E
:10076000938B828B82EC90E0958B848B86EC90E06F
:10077000978B868B118E128E138E148E0895A1E2A4
:100780001A2EAA1BBB1BFD010DC0AA1FBB1FEE1F0B
:10079000FF1FA217B307E407F50720F0A21BB30B56
:1007A000E40BF50B661F771F881F991F1A9469F7D2
:1007B00060957095809590959B01AC01BD01CF012E
:1007C0000895EE0FFF1F0590F491E02D0994F89421
:0207D000FFCF59
:1007D200000000004201A200CF008F010001DE00F4
:0E07E200F200416E616C6F673A20000D0A0054
:00000001FF
